:020000040800F2
:10000000A006002029020008650200086702000817
:10001000690200086B0200086D0200080000000081
:100020000000000000000000000000006F02000857
:10003000710200080000000073020008B108000807
:1000400077020008770200087702000877020008AC
:10005000770200087702000877020008770200089C
:10006000770200087702000877020008770200088C
:10007000770200087702000877020008770200087C
:1000800077020008770200082903000877020008B9
:10009000770200087702000877020008770200085C
:1000A000770200087702000877020008770200084C
:1000B000770200087702000877020008770200083C
:1000C000770200087702000877020008770200082C
:1000D000770200087702000877020008770200081C
:1000E000770200087702000877020008770200080C
:1000F00077020008770200087702000877020008FC
:1001000077020008770200087702000877020008EB
:1001100077020008770200087702000877020008DB
:1001200077020008770200087702000877020008CB
:1001300077020008770200087702000877020008BB
:1001400077020008770200087702000877020008AB
:10015000770200087702000877020008770200089B
:10016000770200087702000877020008770200088B
:1001700077020008770200087702000800000000FC
:10018000770200087702000800F002F800F03CF85F
:100190000AA090E8000C82448344AAF10107DA45E2
:1001A00001D100F031F8AFF2090EBAE80F0013F0F8
:1001B000010F18BFFB1A43F001031847D80B0000CA
:1001C000F80B0000103A24BF78C878C1FAD852075B
:1001D00024BF30C830C144BF04680C6070470000C1
:1001E0000023002400250026103A28BF78C1FBD840
:1001F000520728BF30C148BF0B6070471FB500F0E1
:100200004FFD1FBD10B510BD00F053F81146FFF7AC
:10021000F5FF00F039FD00F071F803B4FFF7F2FFCD
:1002200003BC00F079F8000016481749174B9942B3
:100230003CBF50F8042B41F8042BF8D314494FF07D
:1002400000028B4238BF43F8042BFAD3DFF8440096
:10025000016841F470010160BFF34F8FBFF36F8FEE
:100260000D480047FEE7FEE7FEE7FEE7FEE7FEE794
:10027000FEE7FEE7FEE7FEE708480949094A0A4BA0
:1002800070470000B40D0008000000201800002096
:10029000A006002088ED00E089010008A0000020F1
:1002A000A0060020A0020020A00200207047704796
:1002B0007047754600F02CF8AE4605006946534677
:1002C00020F00700854618B020B5FFF7D5FFBDE840
:1002D00020404FF000064FF000074FF000084FF0AD
:1002E000000B21F00701AC46ACE8C009ACE8C0093E
:1002F000ACE8C009ACE8C0098D46704710B50446AB
:10030000AFF300802046BDE81040FFF786BF000035
:10031000004870473C00002001491820ABBEFEE7B2
:1003200026000200704700001220002807DB00F0C2
:100330001F02012191400F4A430942F8231000BFD8
:100340000D48006800F00400042805D10A48006840
:1003500040F00400084908600748006800F0080001
:10036000082805D10448006840F0080002490860E8
:100370007047000080E200E00000045030B5044601
:10038000B4F5FA7F1FD008DC192C2CD04B2C26D0CA
:100390007D2C20D0FA2C2AD119E0B4F57A7F0ED02A
:1003A000B4F5FA6F07D0A4F6B835002D1FD1082197
:1003B000002200231BE007210022012317E0062171
:1003C0000022022313E00521002202230FE0042172
:1003D000002203230BE003210022032307E0022174
:1003E0000022042303E001210022042300BF00BFF8
:1003F00030BD0146012901D1022070470120FCE7F0
:10040000002000BF0B49096801F004010029F9D15F
:10041000002006E0002207490C3141F82020411C51
:10042000C8B20F28F6DD0349096841F00401014A0A
:1004300011607047082400402F48806D00F0805004
:1004400028B92D48806D40F080502B4988652A4896
:10045000806D2A48006800F4807060B92748006801
:1004600040F480702549086000BF2448006800F40B
:1004700080700028F9D020489030006820F00500F6
:100480001D49C1F890000846D0F8900040F4803033
:10049000C1F890000846D0F8900020F48030C1F8F0
:1004A000900007E014489030006840F001001249C5
:1004B000C1F8900010489030006800F00200002859
:1004C000F0D00D489030006820F440700A49C1F81F
:1004D00090000846D0F8900040F48070C1F8900079
:1004E0000846806D20F0805088650846806D40F495
:1004F00000708865704700000010024000700040E6
:100500003E48006820F001003C490860081D006872
:1005100040F47010091D08600846006820F07070F3
:1005200008600846006820F440300860084600680B
:1005300020F4604008600846006840F4804008608D
:100540000846006840F0700008600846006820F423
:10055000E05008600846006840F4A0500860084673
:10056000006820F0700008600846006840F0400015
:10057000086000BF21480830006800F02000002813
:10058000F8D01E48006820F01C001C49086008468E
:10059000006840F00C0008600846006820F0600029
:1005A00008600846006840F040000860084600689F
:1005B00020F0800008600846006820F00200086013
:1005C0000846006840F00100086000BF0B48083092
:1005D000006800F001000028F8D000BF074808308C
:1005E000006800F010000028F8D0044808300068C7
:1005F00040F00400014908310860704700240040C1
:1006000000B500F007F8FFF717FFFFF779FFFFF7D6
:10061000F7FE00BD5E48C06C40F00F005C49C86446
:100620004FF0904000685B4908404FF090410860EF
:1006300008460068584908434FF090410860084652
:10064000006A40F03B4008620846406A534908434C
:100650004FF090414862084680684E4908404FF08C
:1006600090418860084680684B4908434FF09041AC
:1006700088600846C068474908404FF09041C8600C
:1006800047480068474908404549086008460068EF
:10069000454908434249086041482030006840F01D
:1006A000BB103F49203108603D48406A3F4908433C
:1006B0003B4948623A48083000683A49084038499E
:1006C0000831086008460068374908433449083152
:1006D0000860081D00683349084031490C31086042
:1006E00033480068334908403149086008460068CB
:1006F000314908432E4908602D48203000682F49B1
:1007000008432B49203108602948406A40F00B011A
:100710002748416226480830006826490840244995
:100720000831086008460068234908432049083119
:100730000860081D00681F4908401D490C31086009
:100740001F48006880B21E490860084600681D49BD
:1007500008431B4908600846406A40F0BB3118480E
:1007600041621748083000686FF30F0014490831E0
:1007700008600846006813490843114908310860B9
:10078000081D00686FF30F00091D08607047000026
:1007900000100240FF0FC03F00A02A80BB0B00B03A
:1007A00000040048F0F0F3000A0A08AAB000BBBB3E
:1007B000000800483F00FCFF80AA020000B0BBBB5D
:1007C000000C00480000AAAA1CB500BF124800682F
:1007D00000F004000028F9D11048016800918088D9
:1007E000ADF804000120019A00F0B0F80A48006852
:1007F00040F004000849086000BF0748006800F0A6
:1008000008000028F9D00448001D006840F00800E6
:100810000149091D08601CBD08240040E60C0008C1
:100820002148C06C40F010001F49C8641F48006890
:1008300020F040401D4908600846006840F08040B4
:1008400008600846006820F44030086008460068E8
:1008500040F4803008600846806820F0404088609E
:100860000846806840F0404088600846806820F470
:10087000403088600846806840F440308860084610
:10088000406820F4004048600846406820F48070CA
:1008900048600846C06820F04040C8600846C0680C
:1008A00020F44030C860704700100240001000483B
:1008B00002480068401C014908607047140000208D
:1008C00010B500204FF0E021086140F2E7304861A8
:1008D00000208861401E0121002804DB0A07130E56
:1008E000184A135406E00A07140E174A00F00F03C3
:1008F0001B1FD45400BF4FF0FF3000280DDB00BF9A
:1009000000BF00F01F02012191404209920002F154
:10091000E022C2F8001100BF00BF00BF4FF0E0208E
:10092000006940F002004FF0E021086108460069CC
:1009300020F0040008610846006940F001000861E9
:1009400010BD000000E400E018ED00E0084909686F
:1009500021F4800101F58001054A11600449143930
:10096000896921F00101491C014A143A91617047DB
:10097000142400402DE9F84F0025002600200090A7
:1009800080468146824683465148806840F0040094
:100990004F49886000BF4F48006840F004000028BD
:1009A000F9D04B48006C4C49086000244FF40057C4
:1009B0004A48006840F0AA40484908600846406933
:1009C00040F4704048610A2000F09CF843480068F9
:1009D00020F07F404149086000E0641C3F48006906
:1009E00000F400400028F8D1BC4206DD3B484069D5
:1009F00040F480703949486105E03848406920F486
:100A000080703649486100243349096888B232460B
:100A10002946009BFFF7B2FC3149096888B2FFF70D
:100A2000E8FC80462F49096888B2FFF7E2FC81465E
:100A30002D49096888B2FFF7DCFC82462B4909681A
:100A400088B2FFF7D6FC834605EB4500284901EB49
:100A50004000284902680A608088888006EB4600CA
:100A6000234901EB400023490268C1F80620808831
:100A7000488108EB4800204901EB40001D4902680D
:100A8000CA608088088209EB49001B4901EB4000DD
:100A900018490268C1F812208088C8820AEB4A000F
:100AA000154901EB4000134902688A6180888883F8
:100AB0000BEB4B00104901EB40000E490268C1F8F6
:100AC0001E2080884884FFF77FFE00F017B80000E2
:100AD00000000450000304500000002000100048F3
:100AE00004000020080000200C000020100000205E
:100AF000AA0C000818000020E60C000818BCBDE88D
:100B0000E08F0000054A116800BF044A1268521ABB
:100B10008242FAD30022014B1A6070471400002071
:100B20005249C96C41F40051504AD1641146C96A16
:100B300041F40051D1621146C96A1146C96A21F4D3
:100B40000051D1621146C96C41F01001D1644FF0DF
:100B50009041096841F03C014FF09042116011460C
:100B6000C96821F03C01D1601146C96A41F0060113
:100B7000D1623F49496841F480713D4A51603D4925
:100B8000096821F470113C4AC2F808131146D1F8E3
:100B9000081321F44031C2F808131146D1F80813A4
:100BA00041F48031C2F808131146D1F8081321F03E
:100BB0001F01C2F808131146896801F00051B1F114
:100BC000005F04D11146896821F0005191602A49E3
:100BD000896841F08051284A91604FF4C86000E074
:100BE000401E0028FCD12449C96801F04001224A76
:100BF000D1601146C96821F02001D1601146C96851
:100C000021F40051D1601146C96821F44061D160DE
:100C10001146096B21F00F0111631146096B21F494
:100C2000F86111631146096B41F4C07111631249F7
:100C3000B031096821F04001C2F8B010114649698D
:100C400021F4E01151611146496941F4402151619B
:100C50001146896841F00101916000BF06490968A9
:100C600001F001010029F9D0704700000010024096
:100C700000000140080304500000045000B5FFF7D5
:100C8000CFFDFFF71DFE00BDFFF7BAFCFFF748FFE1
:100C9000FFF7F4FFFFF798FD01E0FFF76BFEFCE7BD
:100CA0004FF04070E1EE100A70470101010123028C
:100CB00000010100200001010001450001010101C6
:100CC0004000000101004600010001014600010052
:100CD000010147000101010000000101010147007D
:100CE000010101014600010101004700010101016C
:100CF0005001010000010300010101011001010088
:100D0000000107000100000007000100010143008D
:100D10000001010047000100000110010001010174
:100D2000010000000000A700000000010300000116
:100D300001002B00000101008B00010101010300F3
:100D400001010000470001010101830001010000D1
:100D5000C700010001014600010000001001000170
:100D600001010300000000002302000101008302D2
:100D700000000000A802000000002801010000019E
:100D800020020000000044000000000000040000F9
:100D900000000008B40D000800000020180000004A
:100DA000C4010008CC0D00081800002088060000CF
:100DB000E00100080000000000000000000000004A
:0C0DC00000000000000000000000000027
:040000050800018965
:00000001FF
