:020000040800F2
:10000000A006002029020008650200086702000817
:10001000690200086B0200086D0200080000000081
:100020000000000000000000000000006F02000857
:10003000710200080000000073020008B508000803
:1000400077020008770200087702000877020008AC
:10005000770200087702000877020008770200089C
:10006000770200087702000877020008770200088C
:10007000770200087702000877020008770200087C
:1000800077020008770200082903000877020008B9
:10009000770200087702000877020008770200085C
:1000A000770200087702000877020008770200084C
:1000B000770200087702000877020008770200083C
:1000C000770200087702000877020008770200082C
:1000D000770200087702000877020008770200081C
:1000E000770200087702000877020008770200080C
:1000F00077020008770200087702000877020008FC
:1001000077020008770200087702000877020008EB
:1001100077020008770200087702000877020008DB
:1001200077020008770200087702000877020008CB
:1001300077020008770200087702000877020008BB
:1001400077020008770200087702000877020008AB
:10015000770200087702000877020008770200089B
:10016000770200087702000877020008770200088B
:1001700077020008770200087702000800000000FC
:10018000770200087702000800F002F800F03CF85F
:100190000AA090E8000C82448344AAF10107DA45E2
:1001A00001D100F031F8AFF2090EBAE80F0013F0F8
:1001B000010F18BFFB1A43F001031847F8120000A3
:1001C00018130000103A24BF78C878C1FAD8520733
:1001D00024BF30C830C144BF04680C6070470000C1
:1001E0000023002400250026103A28BF78C1FBD840
:1001F000520728BF30C148BF0B6070471FB501F0E0
:10020000DFF81FBD10B510BD00F053F81146FFF721
:10021000F5FF01F0CBF800F071F803B4FFF7F2FF3F
:1002200003BC00F079F8000016481749174B9942B3
:100230003CBF50F8042B41F8042BF8D314494FF07D
:1002400000028B4238BF43F8042BFAD3DFF8440096
:10025000016841F470010160BFF34F8FBFF36F8FEE
:100260000D480047FEE7FEE7FEE7FEE7FEE7FEE794
:10027000FEE7FEE7FEE7FEE708480949094A0A4BA0
:1002800070470000D414000800000020180000206F
:10029000A006002088ED00E089010008A0000020F1
:1002A000A0060020A0020020A00200207047704796
:1002B0007047754600F02CF8AE4605006946534677
:1002C00020F00700854618B020B5FFF7D5FFBDE840
:1002D00020404FF000064FF000074FF000084FF0AD
:1002E000000B21F00701AC46ACE8C009ACE8C0093E
:1002F000ACE8C009ACE8C0098D46704710B50446AB
:10030000AFF300802046BDE81040FFF786BF000035
:10031000004870473C00002001491820ABBEFEE7B2
:1003200026000200704700001220002807DB00F0C2
:100330001F02012191400F4A430942F8231000BFD8
:100340000D48006800F00400042805D10A48006840
:1003500040F00400084908600748006800F0080001
:10036000082805D10448006840F0080002490860E8
:100370007047000080E200E00000045030B50B46FA
:1003800001460A2491FBF4F391FBF4F504FB1512EA
:1003900030BD014670470000002000BF0B490968CE
:1003A00001F004010029F9D1002006E000220749EC
:1003B0000C3141F82020411CC8B20F28F6DD03495A
:1003C000096841F00401014A1160704708240040A7
:1003D0002F48806D00F0805028B92D48806D40F086
:1003E00080502B4988652A48806D2A48006800F4AF
:1003F000807060B92748006840F480702549086023
:1004000000BF2448006800F480700028F9D020481C
:100410009030006820F005001D49C1F890000846A2
:10042000D0F8900040F48030C1F890000846D0F831
:10043000900020F48030C1F8900007E0144890301C
:10044000006840F001001249C1F890001048903057
:10045000006800F002000028F0D00D4890300068DD
:1004600020F440700A49C1F890000846D0F8900086
:1004700040F48070C1F890000846806D20F08050F4
:1004800088650846806D40F40070886570470000FC
:1004900000100240007000403E48006820F001005B
:1004A0003C490860081D006840F47010091D086090
:1004B0000846006820F0707008600846006820F464
:1004C000403008600846006820F460400860084634
:1004D000006840F4804008600846006840F0700002
:1004E00008600846006820F4E0500860084600688C
:1004F00040F4A05008600846006820F070000860D2
:100500000846006840F04000086000BF21480830FD
:10051000006800F020000028F8D01E48006820F095
:100520001C001C4908600846006840F00C00086088
:100530000846006820F0600008600846006840F047
:10054000400008600846006820F080000860084607
:10055000006820F0020008600846006840F00100D2
:10056000086000BF0B480830006800F00100002858
:10057000F8D000BF07480830006800F010000028DD
:10058000F8D004480830006840F004000149083100
:10059000086070470024004000B500F007F8FFF73E
:1005A00017FFFFF779FFFFF7F7FE00BD5E48C06C4D
:1005B00040F00F005C49C8644FF0904000685B4910
:1005C00008404FF0904108600846006858490843C9
:1005D0004FF0904108600846006A40F03B400862D6
:1005E0000846406A534908434FF090414862084624
:1005F00080684E4908404FF0904188600846806806
:100600004B4908434FF0904188600846C06847490D
:1006100008404FF09041C86047480068474908408B
:100620004549086008460068454908434249086052
:1006300041482030006840F0BB103F49203108603D
:100640003D48406A3F4908433B4948623A480830C0
:1006500000683A490840384908310860084600688F
:1006600037490843344908310860081D0068334998
:10067000084031490C31086033480068334908406C
:100680003149086008460068314908432E4908602E
:100690002D48203000682F4908432B49203108603D
:1006A0002948406A40F00B0127484162264808303B
:1006B0000068264908402449083108600846006857
:1006C00023490843204908310860081D00681F4974
:1006D00008401D490C3108601F48006880B21E495F
:1006E0000860084600681D4908431B490860084621
:1006F000406A40F0BB311848416217480830006832
:100700006FF30F0014490831086008460068134968
:100710000843114908310860081D00686FF30F0095
:10072000091D08607047000000100240FF0FC03F25
:1007300000A02A80BB0B00B000040048F0F0F300DA
:100740000A0A08AAB000BBBB000800483F00FCFF33
:1007500080AA020000B0BBBB000C00480000AAAA9F
:100760001CB500BF2D48006800F004000028F9D136
:100770002B48016800918088ADF804000120019A9F
:1007800000F012F92648D0F8061000914089ADF823
:1007900004000220019A00F007F92148C168009185
:1007A000008AADF804000320019A00F0FDF81C480F
:1007B000D0F812100091C08AADF804000420019A0C
:1007C00000F0F2F8164881690091808BADF80400C2
:1007D0000520019A00F0E8F81148D0F81E100091A9
:1007E000408CADF804000620019A00F0DDF80B48BB
:1007F000006840F004000949086000BF074800682D
:1008000000F008000028F9D00448001D006840F0FE
:1008100008000249091D08601CBD000008240040B2
:10082000180000202148C06C40F010001F49C86427
:100830001F48006820F040401D49086008460068D5
:1008400040F0804008600846006820F440300860AE
:100850000846006840F4803008600846806820F050
:10086000404088600846806840F040408860084604
:10087000806820F4403088600846806840F440304A
:1008800088600846406820F4004048600846406898
:1008900020F4807048600846C06820F04040C8607E
:1008A0000846C06820F44030C8607047001002401D
:1008B0000010004802480068401C01490860704769
:1008C0001400002010B500204FF0E021086140F234
:1008D000E730486100208861401E0121002804DBC8
:1008E0000A07130E184A135406E00A07140E174A93
:1008F00000F00F031B1FD45400BF4FF0FF3000283F
:100900000DDB00BF00BF00F01F0201219140420932
:10091000920002F1E022C2F8001100BF00BF00BF48
:100920004FF0E020006940F002004FF0E021086144
:100930000846006920F0040008610846006940F09C
:100940000100086110BD000000E400E018ED00E0C7
:100950001448006840F001001249086008468068A9
:1009600020F00300886000BF0E48006800F002001D
:100970000028F9D00B48006820F0F0000949086011
:100980000846006840F0700008600846006840F0C3
:100990000800086000BF0348006800F0020000285B
:1009A000F9D070470010024007B508287ED2DFE872
:1009B00000F07D0497FDFCFBFAF99DF80410FE4A57
:1009C000927D61F38612FC498A759DF80520897F26
:1009D00062F38611F84A91779DF80610927D61F3D3
:1009E000C712F5498A759DF80710F34A127D61F325
:1009F0000412F1490A759DF80810EF4A127F61F35D
:100A00000412ED490A779DF808104A08EA49097D61
:100A100062F3C301E84A11759DF808108A08E64997
:100A2000097F62F3C301E44A11779DF80810CA08F0
:100A3000E1491439097E62F3C301DF4A143A1176A1
:100A40009DF808100A09DC491439897E62F3861181
:100A5000D94A143A91769DF808104A09D649897BFB
:100A600062F38611D44A91739DF808108A09D2491D
:100A7000897F62F3C711D04A91779DF80810CA099F
:100A8000CD491439097E62F30411CB4A143A117628
:100A90009DF80920C849097B62F30411C64A117305
:100AA0009DF809104A08C449097B00E050E262F34E
:100AB000C301C14A11739DF809108A08BE49897B98
:100AC00062F3C711BC4A91739DF80910CA08BA496C
:100AD0001439897E62F3C711B74A143A9176D9E284
:100AE0009DF80410B44A527D61F30412B2494A756C
:100AF0009DF80510B04A527F61F30412AE494A775F
:100B00009DF80610AC4A527D61F34512AA494A7518
:100B10009DF80710A84A127D61F38612A6490A754E
:100B20009DF80820097F62F38611A34A11779DF88A
:100B300008104A08A049097D62F345119E4A1175C3
:100B40009DF808108A089C49097F62F345119A4A6A
:100B500011779DF80810CA0897491439097E62F385
:100B60004511954A143A11769DF808100A099249E0
:100B70001439497E62F304118F4A143A51769DF874
:100B800008104A098C49497B62F304118A4A51735F
:100B90009DF808108A098849497F62F34511864A01
:100BA000517704E051E2D4E158E1C2E030E09DF831
:100BB0000810CA0980491439097E62F386117E4AF9
:100BC000143A11769DF809207B49097B62F386115E
:100BD000794A11739DF809104A087749097B62F335
:100BE0004511754A11739DF809108A087249497BAD
:100BF00062F34511704A51739DF80910CA086E4995
:100C00001439497E62F345116B4A143A517641E238
:100C10009DF804206849C97D62F30411664AD175C4
:100C20009DF80510D27F61F304126349CA779DF8DD
:100C30000610614AD27D61F345125F49CA759DF87D
:100C40000720497D62F3C7115B4A51759DF8082062
:100C50005949497F62F3C711574A51779DF80810E7
:100C60004A085549497D62F38611534A51759DF8EA
:100C700008108A085049497F62F386114E4A51771D
:100C80009DF80810CA084C491439497E62F3861150
:100C9000494A143A51769DF808100A094649143910
:100CA000C97E62F30411444A143AD1769DF80810C3
:100CB0004A094149C97B62F304113F4AD1739DF847
:100CC00008108A093C49C97F62F345113A4AD17735
:100CD0009DF80810CA0938491439497E62F3C711D2
:100CE000354A143A51769DF809203349497B62F31D
:100CF000C711314A51739DF809104A082E49497BA2
:100D000062F386112C4A51739DF809108A082A490A
:100D1000C97B62F34511284AD1739DF80910CA08AE
:100D200025491439C97E62F34511234A143AD17614
:100D3000B0E19DF80410204A127C61F300021E49C4
:100D40000A749DF805101C4A127E61F300021A49CC
:100D50000A769DF80620097C62F34101164A117457
:100D60009DF807201449C97D62F3C711124AD17555
:100D70009DF808201049C97F62F3C7110E4AD17748
:100D80009DF808104A080C49C97D62F386110A4A89
:100D9000D1759DF808108A080749C97F62F386114A
:100DA000054AD1779DF80810CA0803491439C97E4D
:100DB00062F38611004A01E014240040143AD1760F
:100DC0009DF808100A09B449097862F30001B24A93
:100DD00011709DF808104A09AF491439097F62F370
:100DE0000001AD4A143A11779DF808108A09AA4902
:100DF000097E62F34101A84A11769DF80810CA09DC
:100E0000A5491439C97E62F3C711A34A143AD176B1
:100E10009DF80920A049C97B62F3C7119E4AD1738E
:100E20009DF809104A089C49C97B62F386119A4AC9
:100E3000D1739DF809108A0897491439097F62F324
:100E40004101954A143A11779DF80910CA08924950
:100E5000097862F34101904A11701BE19DF804107A
:100E60008D4AD27D61F300028B49CA759DF8052039
:100E7000C97F62F30001884AD1779DF80610D27DC0
:100E800061F341028449CA759DF80720097C62F329
:100E9000C301814A11749DF80810127E61F3C302E8
:100EA0007D490A769DF808104A087B49097C62F35F
:100EB0008201794A11749DF808108A087649097EE2
:100EC00062F38201744A11769DF80810CA087249CB
:100ED000097862F38201704A11709DF808100A09BE
:100EE0006D491439C97E62F300016B4A143AD17618
:100EF0009DF808104A096849C97B62F30001664AF7
:100F0000D1739DF808108A096349C97F62F34101D2
:100F1000614AD1779DF80810CA095F49097862F3E0
:100F2000C3015D4A11709DF809205B491439097F9E
:100F300062F3C301584A143A11779DF809104A0820
:100F400055491439097F62F38201534A143A1177E3
:100F5000A0E09DF804205049497D62F341014E4ACA
:100F600051759DF80510527F61F341024A494A7755
:100F70009DF80610484A527D61F3000246494A75C1
:100F80009DF80720897D62F34101434A91759DF8E0
:100F90000810927F61F341023F498A779DF808105B
:100FA0004A083D49C97D62F382013B4AD1759DF8EB
:100FB00008108A083849C97F62F38201364AD1771E
:100FC0009DF80810CA0834491439C97E62F38201B9
:100FD000314A143AD1769DF808100A092E4914397D
:100FE000497E62F341012C4A143A51769DF808106B
:100FF0004A092949497B62F34101274A51739DF807
:1010000008108A092449497F62F30001224A517776
:101010009DF80810CA0920491439897E62F34101FC
:101020001D4A143A91769DF809201B49897B62F389
:101030004101194A91739DF809104A081649C97B64
:1010400062F38201144AD17324E09DF8042012490E
:101050001439497E62F300010F4A143A51769DF823
:1010600005100D4A527B61F300020B494A739DF84B
:10107000062009491439C97E62F34101064A143A2F
:10108000D1769DF80710044AD27B61F341020249F0
:10109000CA7300BF00BF0EBD142400402DE9F05FED
:1010A00000250026A846A946AA46AB4650488068B7
:1010B00040F004004E49886000BF4E48006840F090
:1010C00004000028F9D04A48006C4B49086000240D
:1010D0004FF400574948006840F0AA40474908606B
:1010E0000846406940F4704048610A2000F09AF8D0
:1010F0004248006820F07F404049086000E0641CDE
:101100003E48006900F400400028F8D1BC4206DDEA
:101110003A48406940F480703849486105E03748F2
:10112000406920F4807035494861002432490968DB
:1011300088B232462946FFF721F93149096888B259
:10114000FFF727F980462F49096888B2FFF721F990
:1011500081462D49096888B2FFF71BF982462B4961
:10116000096888B2FFF715F9834605EB4500284961
:1011700001EB4000274902680A608088888006EBFE
:101180004600234901EB400022490268C1F80620CD
:101190008088488108EB48001F4901EB40001D4949
:1011A0000268CA608088088209EB49001A4901EB8D
:1011B000400018490268C1F812208088C8820AEBF2
:1011C0004A00154901EB4000124902688A61808893
:1011D00088830BEB4B00104901EB40000D4902687E
:1011E000C1F81E2080884884FFF7BAFA00F016B8CC
:1011F00000000450000304500000002000100048CC
:1012000004000020080000200C0000201000002036
:10121000CA130008180000200614000830BCBDE8FE
:10122000C09F0000054A116800BF044A1268521AA4
:101230008242FAD30022014B1A607047140000204A
:101240005249C96C41F40051504AD1641146C96AEF
:1012500041F40051D1621146C96A1146C96A21F4AC
:101260000051D1621146C96C41F01001D1644FF0B8
:101270009041096841F03C014FF0904211601146E5
:10128000C96821F03C01D1601146C96A41F00601EC
:10129000D1623F49496841F480713D4A51603D49FE
:1012A000096821F470113C4AC2F808131146D1F8BC
:1012B000081321F44031C2F808131146D1F808137D
:1012C00041F48031C2F808131146D1F8081321F017
:1012D0001F01C2F808131146896801F00051B1F1ED
:1012E000005F04D11146896821F0005191602A49BC
:1012F000896841F08051284A91604FF4C86000E04D
:10130000401E0028FCD12449C96801F04001224A4E
:10131000D1601146C96821F02001D1601146C96829
:1013200021F40051D1601146C96821F44061D160B7
:101330001146096B21F00F0111631146096B21F46D
:10134000F86111631146096B41F4C07111631249D0
:10135000B031096821F04001C2F8B0101146496966
:1013600021F4E01151611146496941F44021516174
:101370001146896841F00101916000BF0649096882
:1013800001F001010029F9D070470000001002406F
:1013900000000140080304500000045000B5FFF7AE
:1013A000D7FAFFF73FFAFFF78DFA00BDFFF7F4F821
:1013B000FFF746FFFFF7F2FF01E0FFF76FFEFCE7E4
:1013C0004FF04070E1EE100A704701010101230265
:1013D000000101002000010100014500010101019F
:1013E000400000010100460001000101460001002B
:1013F0000101470001010100000001010101470056
:101400000101010146000101010047000101010144
:101410005001010000010300010101011001010060
:101420000001070001000000070001000101430066
:10143000000101004700010000011001000101014D
:10144000010000000000A7000000000103000001EF
:1014500001002B00000101008B00010101010300CC
:1014600001010000470001010101830001010000AA
:10147000C700010001014600010000001001000149
:1014800001010300000000002302000101008302AB
:1014900000000000A8020000000028010100000177
:1014A00020020000000044000000000000040000D2
:1014B00000000008D41400080000002018000000FC
:1014C000C4010008EC140008180000208806000081
:1014D000E001000800000000000000000000000023
:0C14E00000000000000000000000000000
:040000050800018965
:00000001FF
