:020000040800F2
:10000000B006002029020008650200086702000807
:10001000690200086B0200086D0200080000000081
:100020000000000000000000000000006F02000857
:10003000710200080000000073020008390900087E
:1000400077020008770200087702000877020008AC
:10005000770200087702000877020008770200089C
:10006000770200087702000877020008770200088C
:10007000770200087702000877020008770200087C
:1000800077020008770200082903000877020008B9
:10009000770200087702000877020008770200085C
:1000A000770200087702000877020008770200084C
:1000B000770200087702000877020008770200083C
:1000C000770200087702000877020008770200082C
:1000D000770200087702000877020008770200081C
:1000E000770200087702000877020008770200080C
:1000F00077020008770200087702000877020008FC
:1001000077020008770200087702000877020008EB
:1001100077020008770200087702000877020008DB
:1001200077020008770200087702000877020008CB
:1001300077020008770200087702000877020008BB
:1001400077020008770200087702000877020008AB
:10015000770200087702000877020008770200089B
:10016000770200087702000877020008770200088B
:1001700077020008770200087702000800000000FC
:10018000770200087702000800F002F800F03CF85F
:100190000AA090E8000C82448344AAF10107DA45E2
:1001A00001D100F031F8AFF2090EBAE80F0013F0F8
:1001B000010F18BFFB1A43F001031847681A00002B
:1001C000881A0000103A24BF78C878C1FAD85207BC
:1001D00024BF30C830C144BF04680C6070470000C1
:1001E0000023002400250026103A28BF78C1FBD840
:1001F000520728BF30C148BF0B6070471FB501F0E0
:100200008BFC1FBD10B510BD00F053F81146FFF771
:10021000F5FF01F0DDF900F071F803B4FFF7F2FF2C
:1002200003BC00F079F8000016481749174B9942B3
:100230003CBF50F8042B41F8042BF8D314494FF07D
:1002400000028B4238BF43F8042BFAD3DFF8440096
:10025000016841F470010160BFF34F8FBFF36F8FEE
:100260000D480047FEE7FEE7FEE7FEE7FEE7FEE794
:10027000FEE7FEE7FEE7FEE708480949094A0A4BA0
:1002800070470000441C00080000002024000020EB
:10029000B006002088ED00E089010008B0000020D1
:1002A000B0060020B0020020B00200207047704766
:1002B0007047754600F02CF8AE4605006946534677
:1002C00020F00700854618B020B5FFF7D5FFBDE840
:1002D00020404FF000064FF000074FF000084FF0AD
:1002E000000B21F00701AC46ACE8C009ACE8C0093E
:1002F000ACE8C009ACE8C0098D46704710B50446AB
:10030000AFF300802046BDE81040FFF786BF000035
:10031000004870475000002001491820ABBEFEE79E
:1003200026000200704700001220002807DB00F0C2
:100330001F02012191400F4A430942F8231000BFD8
:100340000D48006800F00400042805D10A48006840
:1003500040F00400084908600748006800F0080001
:10036000082805D10448006840F0080002490860E8
:100370007047000080E200E00000045070B52DEDF1
:10038000088B0546284601F0B6FA41EC1B0B9FEDA1
:10039000230B53EC102B01F0C1FA41EC1A0B9FED2B
:1003A000210B53EC102B01F01FF941EC190B53EC0E
:1003B000192B9FED1E0B51EC100B01F015F941ECC0
:1003C000180B01F069FA04460A2094FBF0F0194971
:1003D00008600A2094FBF0F100FB11401649086008
:1003E000142C03DC04201549086014E0282C03DCDD
:1003F0000320124908600EE03C2C03DC02200F4968
:10040000086008E0502C03DC01200C49086002E081
:1004100000200A490860BDEC088B70BD0000000098
:1004200000000840000000000000904000000000B4
:1004300000003D4014000020180000201C00002097
:10044000002000BF0B49096801F004010029F9D11F
:10045000002006E0002207490C3141F82020411C11
:10046000C8B20F28F6DD0349096841F00401014ACA
:1004700011607047082400402F48806D00F08050C4
:1004800028B92D48806D40F080502B4988652A4856
:10049000806D2A48006800F4807060B927480068C1
:1004A00040F480702549086000BF2448006800F4CB
:1004B00080700028F9D020489030006820F00500B6
:1004C0001D49C1F890000846D0F8900040F48030F3
:1004D000C1F890000846D0F8900020F48030C1F8B0
:1004E000900007E014489030006840F00100124985
:1004F000C1F8900010489030006800F00200002819
:10050000F0D00D489030006820F440700A49C1F8DE
:1005100090000846D0F8900040F48070C1F8900038
:100520000846806D20F0805088650846806D40F454
:1005300000708865704700000010024000700040A5
:100540003E48006820F001003C490860081D006832
:1005500040F47010091D08600846006820F07070B3
:1005600008600846006820F44030086008460068CB
:1005700020F4604008600846006840F4804008604D
:100580000846006840F0700008600846006820F4E3
:10059000E05008600846006840F4A0500860084633
:1005A000006820F0700008600846006840F04000D5
:1005B000086000BF21480830006800F020000028D3
:1005C000F8D01E48006820F01C001C49086008464E
:1005D000006840F00C0008600846006820F06000E9
:1005E00008600846006840F040000860084600685F
:1005F00020F0800008600846006820F002000860D3
:100600000846006840F00100086000BF0B48083051
:10061000006800F001000028F8D000BF074808304B
:10062000006800F010000028F8D004480830006886
:1006300040F0040001490831086070470024004080
:1006400000B500F007F8FFF717FFFFF779FFFFF796
:10065000F7FE00BD5E48C06C40F00F005C49C86406
:100660004FF0904000685B4908404FF090410860AF
:1006700008460068584908434FF090410860084612
:10068000006A40F03B4008620846406A534908430C
:100690004FF090414862084680684E4908404FF04C
:1006A00090418860084680684B4908434FF090416C
:1006B00088600846C068474908404FF09041C860CC
:1006C00047480068474908404549086008460068AF
:1006D000454908434249086041482030006840F0DD
:1006E000BB103F49203108603D48406A3F490843FC
:1006F0003B4948623A48083000683A49084038495E
:100700000831086008460068374908433449083111
:100710000860081D00683349084031490C31086001
:10072000334800683349084031490860084600688A
:10073000314908432E4908602D48203000682F4970
:1007400008432B49203108602948406A40F00B01DA
:100750002748416226480830006826490840244955
:1007600008310860084600682349084320490831D9
:100770000860081D00681F4908401D490C310860C9
:100780001F48006880B21E490860084600681D497D
:1007900008431B4908600846406A40F0BB311848CE
:1007A00041621748083000686FF30F0014490831A0
:1007B0000860084600681349084311490831086079
:1007C000081D00686FF30F00091D086070470000E6
:1007D00000100240FF0FC03F00A02A80BB0B00B0FA
:1007E00000040048F0F0F3000A0A08AAB000BBBBFE
:1007F000000800483F00FCFF80AA020000B0BBBB1D
:10080000000C00480000AAAA1CB500BF33480068CD
:1008100000F004000028F9D1314801680091808877
:10082000ADF804000120019A00F096F92C48D0F8A8
:10083000061000914089ADF804000220019A00F0F2
:100840008BF92748C1680091008AADF804000320A5
:10085000019A00F081F92248D0F812100091C08A64
:10086000ADF804000420019A00F076F91C48816973
:100870000091808BADF804000520019A00F06CF91E
:100880001748D0F81E100091408CADF804000620E7
:10089000019A00F061F91248416A0091008DADF8AB
:1008A00004000720019A00F057F90C48006840F056
:1008B00004000A49086000BF0848006800F008000A
:1008C0000028F9D00548001D006840F008000349E1
:1008D000091D0860462000F0ADFD1CBD0824004045
:1008E000240000201248C06C40F010001049C86479
:1008F0001048006820F07F400E49086008460068F4
:1009000040F0AA4008600846806820F07F40886078
:100910000846806840F07F4088600846406820F4C0
:10092000704048600846C06820F07F40C86070474B
:10093000001002400010004802480068401C0149B5
:10094000086070472000002010B500204FF0E02123
:10095000086142F20F70486100208861401E012149
:10096000002804DB0A07130E184A135406E00A078E
:10097000140E174A00F00F031B1FD45400BF4FF092
:10098000FF3000280DDB00BF00BF00F01F02012177
:1009900091404209920002F1E022C2F8001100BF2A
:1009A00000BF00BF4FF0E020006940F002004FF0B0
:1009B000E02108610846006920F00400086108464B
:1009C000006940F00100086110BD000000E400E093
:1009D00018ED00E05E49096821F007015C4A1160EA
:1009E0001146096841F0020111605A49096841F451
:1009F0008071584A116000BF5649096801F480614E
:100A00000029F9D010205349496821F0F851514A82
:100A100051601146496841EA006151601146096818
:100A200021F08071116000BF4A49096801F000712E
:100A3000B1F1007FF8D04749C96821F00301454A68
:100A4000D1601146C96841F00201D1601146C96800
:100A500021F4FE4141F4A051D1601146C96821F052
:100A6000700141F01001D1601146C96821F0C061E8
:100A7000D1601146C96841F08071D16011460968A2
:100A800041F08071116000BF3249096801F00071C6
:100A90000029F9D02F49896821F003012D4A91607E
:100AA0001146896841F00301916000BF29498968B6
:100AB00001F00C010C29F9D12649896821F0F001D7
:100AC000244A91601146896821F4E06191601146E1
:100AD000896821F4605191601146096821F08061B4
:100AE000116000BF1B49096801F08061B1F1806F9E
:100AF000F8D01849096921F4FE41164A11611146DE
:100B0000096941F4C05111611146096941F400318C
:100B100011611146096941F480311161114609687A
:100B200041F08061116000BF0A49096801F08061ED
:100B30000029F9D007498831096821F44001054AA4
:100B4000C2F888101146096E41F400111166704711
:100B5000002002400010024007B508287ED2DFE8DE
:100B600000F07D0498FDFCFBFAF99DF80410FE4AA4
:100B7000D26961F39652FC49CA619DF80510FA4AA0
:100B80001432126861F39652F74914310A609DF8E5
:100B90000610F54AD26961F3D752F349CA619DF84C
:100BA0000710F14AD26961F30412EF49CA619DF856
:100BB0000810ED4A1432126861F30412EA49143144
:100BC0000A609DF808104A08E749C96962F3C30141
:100BD000E54AD1619DF808108A08E3491431096893
:100BE00062F3C301E04A143211609DF80810CA088C
:100BF000DD49C96A62F3C301DB4AD1629DF808107E
:100C00000A09D949C96A62F39651D74AD1629DF857
:100C100008104A09D449496A62F39651D24A51628E
:100C20009DF808108A09D0491431096862F3D75138
:100C3000CD4A143211609DF80810CA09CA49C96A20
:100C400062F30411C84AD1629DF80910526A61F337
:100C50000412C5494A629DF8091000E051E24A08B1
:100C6000C149496A62F3C301BF4A51629DF8091044
:100C7000CA08BD49C96A62F3D751BB4AD1629DF81F
:100C800009108A08B849496A62F3D751B64A5162D5
:100C9000D6E29DF80420B449C96962F30C31B24A26
:100CA000D1619DF80510B04A1432126861F30C321C
:100CB000AD4914310A609DF80610AB4AD26961F360
:100CC0004D32A949CA619DF80710A74AD26961F35C
:100CD0008612A549CA619DF80810A34A1432126809
:100CE00061F38612A04914310A609DF808104A0881
:100CF0009D49C96962F345119B4AD1619DF808106D
:100D00008A0899491431096862F34511964A1432E8
:100D100011609DF80810CA089349C96A62F3451129
:100D2000914AD1629DF808100A098F49C96A62F395
:100D30000C318D4AD1629DF808104A098A49496AE6
:100D400062F30C31884A51629DF808108A0986497D
:100D5000143104E055E2D5E158E1C6E032E009681B
:100D600062F34D31804A143211609DF80810CA09AF
:100D70007D49C96A62F386117B4AD1629DF80920D8
:100D80007949496A62F38611774A51629DF80910E0
:100D90004A087549496A62F34511734A51629DF8E0
:100DA0000910CA087049C96A62F34D316E4AD162AE
:100DB0009DF809108A086C49496A62F34D316A4A04
:100DC00051623DE29DF80410674AD26961F31C72DA
:100DD0006549CA619DF80510634A1432126861F3CF
:100DE0001C72614914310A609DF806205E49C96988
:100DF00062F35D715C4AD1619DF807205A49C96967
:100E000062F3CF31584AD1619DF80810564A143226
:100E1000126861F3CF32544914310A609DF808100A
:100E20004A085149C96962F38E314F4AD1619DF830
:100E300008108A084C491431096862F38E314A4A15
:100E4000143211609DF80810CA084749C96A62F354
:100E50008E31454AD1629DF808100A094249C96A93
:100E600062F31C71404AD1629DF808104A093E495C
:100E7000496A62F31C713C4A51629DF808108A0964
:100E800039491431096862F35D71374A14321160CF
:100E90009DF80810CA093449C96A62F3CF31324A51
:100EA000D1629DF809203049496A62F3CF312E4A58
:100EB00051629DF809104A082B49496A62F38E3144
:100EC000294A51629DF80910CA082749C96A62F384
:100ED0005D71254AD1629DF809108A082249496A44
:100EE00062F35D71204A5162AAE19DF804101E4A26
:100EF000126A61F300021C490A629DF805208969A3
:100F000062F30001184A91619DF806201649096AAA
:100F100062F34101144A11629DF807201249C96920
:100F200062F3DF71104AD1619DF808100E4A143245
:100F3000126861F3DF720C4914310A609DF80810E1
:100F40004A080949C96962F39E71074AD1619DF84F
:100F500008108A0804491431096862F39E71024A34
:100F60001432116002E00000002400409DF80810D7
:100F7000CA08B449C96A62F39E71B24AD1629DF847
:100F800008100A09AF49096B62F30001AD4A116309
:100F90009DF808104A09AB49896A62F30001A94A21
:100FA00091629DF808108A09A649896962F3410196
:100FB000A44A91619DF80810CA09A249C96A62F35E
:100FC000DF71A04AD1629DF80910526A61F3DF72A5
:100FD0009C494A629DF809104A089A49496A62F395
:100FE0009E71984A51629DF80910CA089549096B8B
:100FF00062F34101934A11639DF809108A089149EF
:10100000896A62F341018F4A916219E19DF80410E7
:101010008C4AD26961F318628A49CA619DF8051049
:10102000884A1432126861F31862864914310A60E2
:101030009DF806208349C96962F35961814AD161EB
:101040009DF80710126A61F3C3027E490A629DF897
:1010500008107C4A926961F3C3027A498A619DF85B
:1010600008104A087749096A62F38201754A1162D9
:101070009DF808108A087349896962F38201714AF0
:1010800091619DF80810CA086E49096B62F38201EC
:101090006C4A11639DF808100A096A49C96A62F32B
:1010A0001861684AD1629DF808104A096549496A81
:1010B00062F31861634A51629DF808108A09614918
:1010C0001431096862F359615E4A143211609DF867
:1010D0000810CA095B49096B62F3C301594A1163DD
:1010E0009DF809205749896A62F3C301554A916204
:1010F0009DF809104A085349896A62F38201514AEE
:1011000091629DE09DF804104E4AD26961F3492234
:101110004C49CA619DF805104A4A1432126861F3BD
:101120004922484914310A609DF806204549C96999
:1011300062F30821434AD1619DF80710D26961F337
:1011400051424049CA619DF808103E4A1432126863
:1011500061F351423B4914310A609DF808104A0876
:101160003849C96962F39A61364AD1619DF808101D
:101170008A0834491431096862F39A61314A143299
:1011800011609DF80810CA082E49C96A62F39A6175
:101190002C4AD1629DF808100A092A49C96A62F3EB
:1011A0004921284AD1629DF808104A092549496A0F
:1011B00062F34921234A51629DF808108A092149A6
:1011C0001431096862F308211E4A143211609DF837
:1011D0000810CA091B49C96A62F35141194AD16210
:1011E0009DF80910526A61F3514216494A629DF80E
:1011F00009104A081349496A62F39A61114A516217
:101200001EE09DF804200F49C96A62F308210D4AC7
:10121000D1629DF80510526A61F3082209494A62B9
:101220009DF80620C96A62F35961064AD1629DF8A9
:1012300007200449496A62F35961024A516200BFBA
:1012400000BF0EBD002400402DE9F0470126002715
:101250004FF000084FF000096B48806840F0040030
:101260006949886000BF6948006840F004000028B0
:10127000F9D06548006C6649086000240A25654875
:10128000006840F0AA40634908600846406940F49D
:10129000704048610A2000F0CDF85E48006820F0F8
:1012A0007F405C49086000BF03E0012000F0C2F805
:1012B000641CAC42F9DD5649096888B2FFF75EF854
:1012C0005448006900F4004008B1012000E01620F5
:1012D00006465048006900F4804008B1012000E053
:1012E000162007464B48006900F4005008B1012061
:1012F00000E0162080464748006900F4805008B19D
:10130000012000E016208146434800680A2801DADF
:10131000012000E0002040490968012202EBE17150
:1013200008403E4909680A2901DA012100E000214C
:1013300008403A490968012202EBE1710840C8B14E
:101340003648006800EB4000354901EB4000354964
:1013500002680A60808888802F48006800EB40009F
:101360002F4901EB40002F490268C1F80620808810
:1013700048810DE02B482A495A310A680260898861
:10138000818027495A310A68C0F80620898841813E
:1013900025480068801C00EB4000244901EB400018
:1013A000204902684A628088088506EB4600204989
:1013B00001EB40001B490268CA608088088207EB85
:1013C00047001B4901EB400016490268C1F8122092
:1013D0008088C88208EB4800154901EB400011499C
:1013E00002688A618088888309EB4900104901EB13
:1013F00040000C490268C1F81E2080884884FFF72D
:1014000003FABDE8F0870000000004500003045018
:1014100000000020001000481800002014000020E8
:10142000221B0008240000201C000020FA1B0008DA
:101430005E1B00080021044A116000BF02490968D0
:101440008142FBD370470000200000205949C96C3D
:1014500041F40051574AD1641146C96A41F4005120
:10146000D1621146C96A1146C96A21F40051D1629C
:101470001146C96C41F00101D1644FF090410968F7
:1014800041F00C014FF0904211601146C96821F003
:101490000C01D1601146C96A41F00201D16246498E
:1014A000496841F48071444A51604449096841F4F3
:1014B0008001434AC2F808131146D1F8081321F4F9
:1014C0007011C2F808131146D1F8081321F4403105
:1014D000C2F808131146D1F8081341F48031C2F85C
:1014E00008131146D1F8081321F01F01C2F80813A0
:1014F0001146D1F8081341F00601C2F8081311464D
:10150000896801F00051B1F1005F04D1114689688A
:1015100021F0005191602A49896841F08051284AA0
:1015200091604FF4C86000E0401E0028FCD12449BF
:10153000C96841F00801224AD1601146C96821F00A
:101540002001D1601146C96821F40051D1601146D3
:10155000C96821F44061D1601146096B21F00F0187
:1015600011631146096B21F4F86111631146096B8F
:1015700041F4C07111631249B031096821F0400192
:10158000C2F8B0101146496921F4E01151611146C9
:10159000496941F4301151611146896841F00101F6
:1015A000916000BF0649096801F001010029F9D0E6
:1015B0007047000000100240000001400803045082
:1015C0000000045000B5FFF78DF9FFF7BDF900BD2D
:1015D000FFF700FAFFF734F8FFF738FFFFF7F2FFE5
:1015E00001E0FFF731FEFCE72DE9C04130B4DFF840
:1015F000A0C23CEA111418BF3CEA131400F0EC80BE
:1016000081EA03051CEA111444EAD57418BF1CEAE8
:10161000131500F0C780A4EB05044FF0004545EA20
:10162000C12145EAC32341EA505143EA525304F130
:101630007F74994204F500344FEAC0204FEAC22279
:1016400008BF904200F09C804FEA13650FF24016ED
:10165000765D4FEA134506FB05F7C7F1807706FB79
:1016600007F74FEAD737A7FB03687642C8F58038FB
:10167000A7FB06CE38BFA8F1010807FB08E64FF02C
:10168000000EA6FB028CE6FB03CEDCF1000CCEF1D3
:10169000004E38BFAEF1010EA6FB0C584FF000070C
:1016A0004FF00005E6FB0E87A1FB08C6A0FB07CEA6
:1016B00016EB0E0645F10005E1FB076515F1E04E5E
:1016C0007EBFA4F580345FEA46066D4116F18007BF
:1016D00045F100054FEA17274FEA066647EA056716
:1016E000A6F1DE46B6F1805F4FEA15251FD93846D0
:1016F00024F0010C05EBC471BCF1FE6F01EB0C1181
:1017000002D8F0BCBDE8008124425CBF01F5801E18
:101710009EEAC47F02D4F0BCBDE80081244238D4E4
:10172000F0BCA1F1C041BDE8004100F0EFB94FEAC3
:10173000D22242EA43524FEAD323A7FB02864FEA62
:10174000D02040EA415007FB03661EEA0E0F4FEA25
:10175000D12105FB026658BFA6EB0056B6EB00563A
:101760004FEA520E4EEAC37E18EB0E0E56EB530EA6
:10177000BDD518EB02085E417F1C55F10005B6E7A8
:101780004FF480154FF000074FF000064FF00008AF
:10179000ADE7F0BC4FF0000001F1C04101F00041A5
:1017A000BDE8008111EA0C1F0CEA131500D00CE013
:1017B00013EA0C1F00F025804FF00000F0BC81EA16
:1017C000030101F00041BDE80081F0BCBDE800412B
:1017D00081EA030100F09AB9F0BCBDE8004170B5A0
:1017E00000F046F9097EFC3E00F007B881EA0301EB
:1017F0004FF0000001F00041704781EA030100F062
:1018000085B9F0BCBDE800414FF0000021497047A8
:10181000FFFDFBF9F7F5F4F2F0EEEDEBE9E8E6E4B5
:10182000E3E1E0DEDDDBDAD8D7D5D4D3D1D0CFCD3C
:10183000CCCBCAC8C7C6C5C4C2C1C0BFBEBDBCBB75
:10184000BAB9B8B7B6B5B4B3B2B1B0AFAEADACAB70
:10185000AAA9A8A8A7A6A5A4A3A3A2A1A09F9F9E4A
:101860009D9C9C9B9A9999989797969595949393FC
:10187000929191908F8F8E8E8D8C8C8B8B8A898993
:101880008888878786858584848383828281818016
:101890000000FF070000F87F4FEA41034FEA53536F
:1018A000A3F58063D3F11E03C8BFD3F1210C0CDD77
:1018B0004FF0004242EAC12242EA505232FA03FC9F
:1018C0008CEAE17CACEBE1707047102BC4BF0020C8
:1018D000704703F5787CBCF1FF3F04D06FF0004205
:1018E00082EA2100704770B500F0C2F84992248066
:1018F00000207047F2E7B0FA80F310FA03F10AD043
:10190000C3F11D0303F580634FEA41504FEA0352D0
:1019100002EBD12170474FF000007047DFF848C15B
:1019200070B51CEA111E1EBF1CEA13159EEA0C0FAF
:1019300095EA0C0F00F06F8081EA030423EA4C1350
:101940004EEAD47E21EA4C1141F4801143F4801315
:10195000AE44A1FB024CA0FB0365AEF17F7E3619BD
:1019600055EB0C05A1FB034C4CF10003A0FB021C42
:1019700016EB0C06654153F10003094218BF46F00F
:10198000010613F4007F0BD14FEA03314FEA053013
:10199000340341EA155140EA16506FF003020AE0A1
:1019A0004FEAC3214FEAC520F40241EA555140EA0B
:1019B00056506FF0020202EB2E4201EB025585EA0F
:1019C000CE710AD05FEA440C18BF24F0004450F1F5
:1019D000000041F1000120EAD47040F2FE7C624533
:1019E00000D270BDA84214BF4FF080444FF0404475
:1019F000002E08BF0024BEF1806FA8BFA1F1C04136
:101A0000BDE8704080F282804FF0000001F1C041DB
:101A100001F0004170479EEA0C0F0CEA131518BF45
:101A200095EA0C0F06D04FF0000081EA030E0EF08D
:101A3000004170BD00F01CF88900013E00F007B8BD
:101A400000F009B84FEA430C5FEA5C5C08D081EA19
:101A5000030100F05BB84FEA410C5FEA5C5CF6D131
:101A60004FF00000014970470000FF070000F87FB9
:101A70000EF1020E2EF0030E5EF8046B364205D412
:101A8000012A43EB030515F5001F12D8012841EB8D
:101A9000010C1CF5001F0CD80ED14FEAD17C15F5B6
:101AA000001F0CEB4C0C0CF1020C08BF4CEBD37C70
:101AB00004E04FF0080C01E04FEAD37C0CEB4C053E
:101AC00026FA05F606F00706B6F1040C06D20EEB70
:101AD000860CBDE870404CF0010C6047DFE80CF06C
:101AE000090B02024FF000414FF00000A1F5002168
:101AF00070BD19461046012851EB010418BFD4F5FA
:101B0000001484BF002001F0004170BD0808A0F55A
:101B100000114FEA310170474FF04070E1EE100ABA
:101B200070470101010123020001010020000101B1
:101B300000014500010101014000000101004600D3
:101B400001000101460001000101470001010100FF
:101B500000000101010147000101010146000101EE
:101B600001004700010101015001010000010300D3
:101B70000101010110010100000107000100000046
:101B800007000100010143000001010047000100BE
:101B90000001100100010101010000000000A70088
:101BA000000000010300000101002B000001010002
:101BB0008B00010101010300010100004700010148
:101BC0000101830001010000C7000100010146007E
:101BD00001000000100100010101030000000000ED
:101BE000230200010100830200000000A80200009F
:101BF0000000280101000001200200000000440054
:101C000000000000000400000000000801000000C7
:101C100000000101000000000101010000000101BD
:101C200001010000441C0008000000202400000006
:101C3000C4010008681C0008240000208C06000075
:101C4000E0010008000000000000000000000000AB
:101C50000000000000000000000000000000000084
:081C600000000000000000007C
:040000050800018965
:00000001FF
