:020000040800F2
:10000000A006002029020008650200086702000817
:10001000690200086B0200086D0200080000000081
:100020000000000000000000000000006F02000857
:100030007102000800000000730200088109000836
:1000400077020008770200087702000877020008AC
:10005000770200087702000877020008770200089C
:10006000770200087702000877020008770200088C
:10007000770200087702000877020008770200087C
:1000800077020008770200088D0300087702000855
:10009000770200087702000877020008770200085C
:1000A000770200087702000877020008770200084C
:1000B000770200087702000877020008770200083C
:1000C000770200087702000877020008770200082C
:1000D000770200087702000877020008770200081C
:1000E000770200087702000877020008770200080C
:1000F00077020008770200087702000877020008FC
:1001000077020008770200087702000877020008EB
:1001100077020008770200087702000877020008DB
:1001200077020008770200087702000877020008CB
:1001300077020008770200087702000877020008BB
:1001400077020008770200087702000877020008AB
:10015000770200087702000877020008770200089B
:10016000770200087702000877020008770200088B
:1001700077020008770200087702000800000000FC
:10018000770200087702000800F002F800F03CF85F
:100190000AA090E8000C82448344AAF10107DA45E2
:1001A00001D100F031F8AFF2090EBAE80F0013F0F8
:1001B000010F18BFFB1A43F0010318473415000064
:1001C00054150000103A24BF78C878C1FAD85207F5
:1001D00024BF30C830C144BF04680C6070470000C1
:1001E0000023002400250026103A28BF78C1FBD840
:1001F000520728BF30C148BF0B6070471FB501F0E0
:10020000FDF91FBD10B510BD00F085F81146FFF7D0
:10021000F5FF01F0E7F900F0A3F803B4FFF7F2FFF0
:1002200003BC00F0ABF8000016481749174B994281
:100230003CBF50F8042B41F8042BF8D314494FF07D
:1002400000028B4238BF43F8042BFAD3DFF8440096
:10025000016841F470010160BFF34F8FBFF36F8FEE
:100260000D480047FEE7FEE7FEE7FEE7FEE7FEE794
:10027000FEE7FEE7FEE7FEE708480949094A0A4BA0
:100280007047000010170008000000201800002030
:10029000A006002088ED00E089010008A0000020F1
:1002A000A0060020A0020020A002002010B5203AE5
:1002B000C0F00B80B1E81850203AA0E81850B1E81F
:1002C0001850A0E81850BFF4F5AF5FEA027C24BFD5
:1002D000B1E81850A0E8185044BF18C918C0BDE8CC
:1002E00010405FEA827C24BF51F8043B40F8043B95
:1002F00008BF7047D20728BF31F8023B48BF11F84A
:10030000012B28BF20F8023B48BF00F8012B7047A3
:10031000704770477047754600F02CF8AE460500F0
:100320006946534620F00700854618B020B5FFF710
:10033000A3FFBDE820404FF000064FF000074FF04C
:1003400000084FF0000B21F00701AC46ACE8C009F3
:10035000ACE8C009ACE8C009ACE8C0098D467047FC
:1003600010B50446AFF300802046BDE81040FFF70B
:1003700054BF0000004870473C000020014918208D
:10038000ABBEFEE7260002007047000012200028E6
:1003900007DB00F01F02012191400F4A430942F898
:1003A000231000BF0D48006800F00400042805D1A8
:1003B0000A48006840F004000849086007480068DF
:1003C00000F00800082805D10448006840F0080043
:1003D000024908607047000080E200E0000004501D
:1003E00030B50446B4F5FA7F1FD008DC192C2CD0A8
:1003F0004B2C26D07D2C20D0FA2C2AD119E0B4F534
:100400007A7F0ED0B4F5FA6F07D0A4F6B835002D78
:100410001FD10821002200231BE007210022012315
:1004200017E006210022022313E005210022022307
:100430000FE00421002203230BE003210022032309
:1004400007E002210022042303E00121002204230B
:1004500000BF00BF30BD0146012901D10220704715
:100460000120FCE7002000BF0B49096801F00401EE
:100470000029F9D1002006E0002207490C3141F89B
:100480002020411CC8B20F28F6DD0349096841F05D
:100490000401014A11607047082400402F48806D14
:1004A00000F0805028B92D48806D40F080502B49D5
:1004B00088652A48806D2A48006800F4807060B919
:1004C0002748006840F480702549086000BF244830
:1004D000006800F480700028F9D02048903000684F
:1004E00020F005001D49C1F890000846D0F89000A2
:1004F00040F48030C1F890000846D0F8900020F415
:100500008030C1F8900007E014489030006840F057
:1005100001001249C1F8900010489030006800F0C6
:1005200002000028F0D00D489030006820F44070A0
:100530000A49C1F890000846D0F8900040F4807055
:10054000C1F890000846806D20F08050886508460C
:10055000806D40F400708865704700000010024014
:10056000007000403E48006820F001003C490860EF
:10057000081D006840F47010091D086008460068F6
:1005800020F0707008600846006820F44030086071
:100590000846006820F4604008600846006840F49F
:1005A000804008600846006840F070000860084617
:1005B000006820F4E05008600846006840F4A0504D
:1005C00008600846006820F070000860084600686F
:1005D00040F04000086000BF21480830006800F08B
:1005E00020000028F8D01E48006820F01C001C499C
:1005F00008600846006840F00C0008600846006883
:1006000020F0600008600846006840F04000086084
:100610000846006820F0800008600846006820F066
:10062000020008600846006840F00100086000BF52
:100630000B480830006800F001000028F8D000BF27
:1006400007480830006800F010000028F8D004487F
:100650000830006840F00400014908310860704724
:100660000024004000B500F007F8FFF717FFFFF780
:1006700079FFFFF7F7FE00BD5E48C06C40F00F0049
:100680005C49C8644FF0904000685B4908404FF0F7
:100690009041086008460068584908434FF090416F
:1006A00008600846006A40F03B4008620846406A1D
:1006B000534908434FF090414862084680684E49CC
:1006C00008404FF090418860084680684B490843D5
:1006D0004FF0904188600846C068474908404FF095
:1006E0009041C8604748006847490840454908604C
:1006F000084600684549084342490860414820309F
:10070000006840F0BB103F49203108603D48406A16
:100710003F4908433B4948623A48083000683A4933
:1007200008403849083108600846006837490843DE
:10073000344908310860081D0068334908403149D0
:100740000C3108603348006833490840314908607B
:1007500008460068314908432E4908602D4820307A
:1007600000682F4908432B49203108602948406A16
:1007700040F00B01274841622648083000682649AE
:1007800008402449083108600846006823490843A6
:10079000204908310860081D00681F4908401D49AC
:1007A0000C3108601F48006880B21E490860084686
:1007B00000681D4908431B4908600846406A40F02C
:1007C000BB31184841621748083000686FF30F00CA
:1007D0001449083108600846006813490843114964
:1007E00008310860081D00686FF30F00091D0860DC
:1007F0007047000000100240FF0FC03F00A02A8099
:10080000BB0B00B000040048F0F0F3000A0A08AA8D
:10081000B000BBBB000800483F00FCFF80AA0200FC
:1008200000B0BBBB000C00480000AAAA1CB500BF6A
:100830002D48006800F004000028F9D12B48016819
:1008400000918088ADF804000120019A00F0D2F9EF
:100850002648D0F8061000914089ADF80400022027
:10086000019A00F0C7F92148C1680091008AADF8EB
:1008700004000320019A00F0BDF91C48D0F81210C2
:100880000091C08AADF804000420019A00F0B2F98A
:10089000164881690091808BADF804000520019A0B
:1008A00000F0A8F91148D0F81E100091408CADF866
:1008B00004000620019A00F09DF90B48006840F002
:1008C00004000949086000BF0748006800F00800FC
:1008D0000028F9D00448001D006840F008000249D3
:1008E000091D08601CBD00000824004018000020FD
:1008F0002148C06C40F010001F49C8641F480068C0
:1009000020F040401D4908600846006840F08040E3
:1009100008600846006820F4403008600846006817
:1009200040F4803008600846806820F040408860CD
:100930000846806840F0404088600846806820F49F
:10094000403088600846806840F44030886008463F
:10095000406820F4004048600846406820F48070F9
:1009600048600846C06820F04040C8600846C0683B
:1009700020F44030C860704700100240001000486A
:1009800002480068401C01490860704714000020BC
:1009900010B500204FF0E021086140F2E7304861D7
:1009A00000208861401E0121002804DB0A07130E85
:1009B000184A135406E00A07140E174A00F00F03F2
:1009C0001B1FD45400BF4FF0FF3000280DDB00BFC9
:1009D00000BF00F01F02012191404209920002F184
:1009E000E022C2F8001100BF00BF00BF4FF0E020BE
:1009F000006940F002004FF0E021086108460069FC
:100A000020F0040008610846006940F00100086118
:100A100010BD000000E400E018ED00E07349096833
:100A200041F00101714A11601146896821F003010A
:100A3000916000BF6D49096801F002010029F9D0F9
:100A40006A49096821F0F001684A11601146096895
:100A500041F0700111601146096841F00801116010
:100A600000BF6249096801F002010029F9D060491C
:100A7000096821F007015E4A11601146096841F0DA
:100A8000020111605949096841F48071574A1160A7
:100A900000BF5649096801F480610029F9D010208F
:100AA0005249496821F0F851504A5160114649684D
:100AB00041EA006151601146096821F080711160BE
:100AC00000BF4A49096801F00071B1F1007FF8D018
:100AD0004649C96821F00301444AD1601146C968FA
:100AE00041F00201D1601146C96821F4FE4141F490
:100AF000A051D1601146C96821F0700141F0100188
:100B0000D1601146C96821F0C061D1601146C96841
:100B100041F08071D1601146096841F08071116027
:100B200000BF3249096801F000710029F9D02F494E
:100B3000896821F003012D4A91601146896841F0CE
:100B40000301916000BF2949896801F00C010C295B
:100B5000F9D12649896821F0F001244A91601146B3
:100B6000896821F4E06191601146896821F460513F
:100B700091601146096821F08061116000BF1B4936
:100B8000096801F08061B1F1806FF8D017490969F7
:100B900021F4FE41154A11611146096941F4C05121
:100BA00011611146096941F4003111611146096969
:100BB00041F4803111611146096841F08061116092
:100BC00000BF0A49096801F080610029F9D007498E
:100BD0008831096821F44001044AC2F8881011469E
:100BE000096E41F4001111667047000000100240C8
:100BF0000020024017B589B00446082C7ED2DFE8F9
:100C000004F07D0493FDFCFBFAF99DF82C0001092A
:100C10009DF8090061F386108DF809009DF82D00FC
:100C2000C1089DF8090061F3C7108DF809009DF80F
:100C30002C00C1089DF80B0061F3C3008DF80B0078
:100C40009DF82C00C1099DF80B0061F304108DF88C
:100C50000B009DF82C0041099DF8110061F38610EE
:100C60008DF811009DF82D0081089DF8110061F3A9
:100C7000C7108DF811009DF82D0041089DF8130054
:100C800061F3C3008DF813009DF82D009DF813103B
:100C900060F304118DF813109DF828009DF81910C9
:100CA00060F386119DF82A00C9B260F3C7118DF870
:100CB00019109DF82C0041089DF81B0061F3C3003A
:100CC0008DF81B009DF82B009DF81B1060F304119C
:100CD0008DF81B109DF829009DF8211060F38611F6
:100CE0008DF821109DF82C0081099DF8210061F3F9
:100CF000C7108DF821009DF82C0000E046E2810825
:100D00009DF8230061F3C3008DF823009DF82C00AB
:100D10009DF8231060F304118DF82310FE48202263
:100D200001A9FFF7C3FAD1E29DF82800FA49497DED
:100D300060F30411F84841759DF82900F649497F90
:100D400060F30411F44841779DF82A00F249497D87
:100D500060F34511F04841759DF82B00EE49097D7F
:100D600060F38611EC4801759DF82C00EA49097F73
:100D700060F38611E84801779DF82C004108E648A9
:100D8000007D61F34510E44908759DF82C00810849
:100D9000E148007F61F34510DF4908779DF82C009A
:100DA000C108DD481438007E61F34510DA49143972
:100DB00008769DF82C000109D7481438407E61F36D
:100DC0000410D549143948769DF82C004109D248C1
:100DD000407B61F30410D04948739DF82C008109D1
:100DE000CD48407F61F34510CB4948779DF82C00F2
:100DF000C10904E04AE2CAE150E1BFE02DE0C64883
:100E00001438007E61F38610C349143908769DF8C2
:100E10002D00C149097B60F38611BF4801739DF81D
:100E20002D004108BC48007B61F34510BA490873A6
:100E30009DF82D008108B848407B61F34510B64904
:100E400048739DF82D00C108B3481438407E61F303
:100E50004510B1491439487638E29DF82810AE485B
:100E6000C07D61F30410AC49C8759DF82910AA48EB
:100E7000C07F61F30410A849C8779DF82A00C97D96
:100E800060F34511A448C1759DF82B10407D61F3B6
:100E9000C710A14948759DF82C109F48407F61F309
:100EA000C7109D4948779DF82C0041089A48407D1D
:100EB00061F38610984948759DF82C008108964882
:100EC000407F61F38610944948779DF82C00C10853
:100ED00091481438407E61F386108F491439487662
:100EE0009DF82C0001098C481438C07E61F3041071
:100EF00089491439C8769DF82C0041098648C07B81
:100F000061F304108449C8739DF82C00810982485C
:100F1000C07F61F345108049C8779DF82C00C10956
:100F20007D481438407E61F3C7107B4914394876F8
:100F30009DF82D107848407B61F3C71076494873BF
:100F40009DF82D0041087448407B61F3861072497A
:100F500048739DF82D0081086F48C07B61F34510F0
:100F60006D49C8739DF82D00C1086B481438C07EC8
:100F700061F3451068491439C876A7E19DF8281037
:100F80006548007C61F30000634908749DF82910EE
:100F90006148007E61F300005F4908769DF82A00F1
:100FA000097C60F341015C4801749DF82B10C07D01
:100FB00061F3C7105849C8759DF82C00C97F60F3CC
:100FC000C7115548C1779DF82C0041085248C07D93
:100FD00061F386105049C8759DF82C0081084E4871
:100FE000C07F61F386104C49C8779DF82C00C1087A
:100FF00049481438C07E61F3861047491439C876D1
:101000009DF82C0001094448007861F30000424932
:1010100008709DF82C0041093F481438007F61F3A7
:1010200000003D49143908779DF82C0081093A48A1
:10103000007E61F34100384908769DF82C00C10913
:1010400035481438C07E61F3C71033491439C87667
:101050009DF82D103048C07B61F3C7102E49C8732E
:101060009DF82D0041082C48C07B61F386102A4969
:10107000C8739DF82D00810827481438007F61F35C
:1010800041002549143908779DF82D00C1082248F0
:10109000007861F341002049087017E19DF82800AD
:1010A0001D49C97D60F300011B48C1759DF82910D9
:1010B000C07F61F300001849C8779DF82A00C97DF8
:1010C00060F341011448C1759DF82B001249097C59
:1010D00060F3C301104801749DF82C10007E61F389
:1010E000C3000D4908769DF82C0041080A48007C91
:1010F00061F38200084908749DF82C0081080648B5
:10110000007E61F38200044908769DF82C00C10836
:101110000148007802E000001424004061F38200DE
:101120006C4908709DF82C00C0F30010694914390F
:10113000C8769DF82C00C0F340106649C8739DF82E
:101140002C0081096348C07F61F341006149C87781
:101150009DF82C00C1095F48007861F3C3005D4928
:1011600008709DF82D105B481438007F61F3C300B0
:101170005849143908779DF82D004108554814380E
:10118000007F61F382005349143908779EE09DF88F
:1011900028105048407D61F341004E4948759DF844
:1011A00029104C48407F61F341004A4948779DF837
:1011B0002A104848407D61F30000464948759DF873
:1011C0002B104448807D61F34100424988759DF8A9
:1011D0002C104048807F61F341003E4988779DF89C
:1011E0002C0041083B48C07D61F382003949C87535
:1011F0009DF82C0081083748C07F61F38200354993
:10120000C8779DF82C00C10832481438C07E61F3BD
:10121000820030491439C8769DF82C0001092D4808
:101220001438407E61F341002A49143948769DF80C
:101230002C0041092748407B61F341002549487350
:101240009DF82C0081092348407F61F3000021496B
:1012500048779DF82C00C1091E481438807E61F340
:1012600041001C49143988769DF82D001949897B65
:1012700060F34101174881739DF82D00410815481E
:10128000C07B61F382001349C8731FE09DF82800FA
:1012900000F001000F49143948769DF8290000F04C
:1012A00001000C4948739DF82A000A491439C97E87
:1012B00060F3410107481438C1769DF82B000549B9
:1012C000C97B60F341010348C17300BF00BF0CB08C
:1012D00010BD0000142400402DE9F84F0027002520
:1012E0000020009080468146824683464F488068B1
:1012F00040F004004D49886000BF4D48006840F050
:1013000004000028F9D04948006C4A4908600024CC
:101310004FF400564848006840F0AA40464908602B
:101320000846406940F4704048610A2000F098F88F
:101330004148006820F07F403F49086000E0641C9D
:101340003D48006900F400400028F8D1B44206DDB1
:101350003948406940F480703749486105E03648B3
:10136000406920F48070344948610024314909689B
:1013700088B22A463946009BFFF732F82F490968A0
:1013800088B2FFF768F880462D49096888B2FFF7F0
:1013900062F881462B49096888B2FFF75CF88246FB
:1013A0002949096888B2FFF756F883462748284933
:1013B0000A6802608988818005EB4500254901EBB8
:1013C000400022490268C1F806208088488108EB65
:1013D00048001F4901EB40001C490268CA60808830
:1013E000088209EB49001A4901EB400017490268DD
:1013F000C1F812208088C8820AEB4A00144901EB28
:101400004000124902688A61808888830BEB4B0098
:101410000F4901EB40000D490268C1F81E20808889
:101420004884FFF703FA00F017B8000000000450EA
:1014300000030450000000200010004804000020B9
:10144000080000200C0000201000002018000020E0
:10145000421600080616000818BCBDE8E08F000020
:10146000054A116800BF044A1268521A8242FAD330
:101470000022014B1A607047140000205249C96CC9
:1014800041F40051504AD1641146C96A41F40051F7
:10149000D1621146C96A1146C96A21F40051D1626C
:1014A0001146C96C41F01001D1644FF090410968B8
:1014B00041F03C014FF0904211601146C96821F0A3
:1014C0003C01D1601146C96A41F00601D1623F4931
:1014D000496841F480713D4A51603D49096821F4F1
:1014E00070113C4AC2F808131146D1F8081321F4D0
:1014F0004031C2F808131146D1F8081341F4803185
:10150000C2F808131146D1F8081321F01F01C2F8E0
:1015100008131146896801F00051B1F1005F04D150
:101520001146896821F0005191602A49896841F08B
:101530008051284A91604FF4C86000E0401E0028A6
:10154000FCD12449C96801F04001224AD16011460A
:10155000C96821F02001D1601146C96821F4005109
:10156000D1601146C96821F44061D1601146096B10
:1015700021F00F0111631146096B21F4F861116329
:101580001146096B41F4C07111631249B031096809
:1015900021F04001C2F8B0101146496921F4E01170
:1015A00051611146496941F44021516111468968F0
:1015B00041F00101916000BF0649096801F0010195
:1015C0000029F9D0704700000010024000000140DF
:1015D000080304500000045000B5FFF789F9FFF735
:1015E000D7F900BDFFF71AFAFFF73CF8FFF746FFFF
:1015F000FFF7F2FF01E0FFF76FFEFCE74FF04070EE
:10160000E1EE100A7047010101012302000101000F
:10161000200001010001450001010101400000011D
:1016200001004600010001014600010001014700E0
:101630000101010000000101010147000101010158
:1016400046000101010047000101010150010100B4
:101650000001030001010101100101000001070068
:10166000010000000700010001014300000101002A
:10167000470001000001100100010101010000000C
:101680000000A700000000010300000101002B0082
:10169000000101008B0001010101030001010000B4
:1016A000470001010101830001010000C7000100A2
:1016B00001014600010000001001000101010300CA
:1016C000000000002302000101008302000000006E
:1016D000A802000000002801010000012002000013
:1016E00000004400000000000004000000000008AA
:1016F000101700080000002018000000C4010008B6
:10170000281700081800002088060000E0010008E3
:1017100000000000000000000000000000000000C9
:081720000000000000000000C1
:040000050800018965
:00000001FF
